:020000040000FA
:100000000000831603138801831203138801082854
:100010002F208030F4101F2003014A200E28F930D1
:10002000F0000000F00B11280800F1000F20F10B88
:100030001628080008150F2008110F200800F500E9
:10004000F0398800F41888141A200F20F50E75086E
:10005000F0398800F41888141A200F200800643042
:100060001520F030F400303088001A2005301520BB
:100070001A200F201A2008121A2028301F200830BA
:100080001F2001301F2006301F2080301F200C3021
:100090001F2008000330B600F41457301F20F4145A
:1000A00065301F20F4146C301F20F41463301F20BF
:1000B000F4146D301F20F41465301F20F414203028
:1000C0001F20F41474301F20F4146F301F20C03030
:1000D000F4101F20F41453301F20F41446301F2056
:1000E000F41452301F20F41430301F20F414343034
:1000F0001F20F41420301F20F4144D301F20F4145E
:100100006F301F20F41464301F20F41475301F204A
:10011000F4146C301F20F41473301F2000301520AD
:1001200095201520B60B4C2808000130F4101F2034
:020130000800C5
:02400E00313748
:00000001FF
