:020000040000FA
:10000000000083160313880183160313071087105B
:10001000071187110712871207178316031306109B
:1000200086100611861183120313880183120313AD
:100030000714871407158711071287120A30B900B1
:100040006430B0002328831203130030C8008600F8
:10005000831203131B218030F4100B21030136217E
:100060000030C3000030B100B200B300B400003073
:10007000012183120313B221831203130710871483
:1000800007158715071287125B20831203130714C5
:100090008710071587110716871290208312031304
:1000A000071487140711871107128716C5208321AB
:1000B000003001213028831203130030C80086006D
:1000C00083120313B221831203138711B8218715FA
:1000D000BB218711071F6A28831203138F018E012A
:1000E000101483120313071B7328831203131010B9
:1000F0001430B50002221B221030B5000222C021AC
:10010000C30A83120313C80A480886008312031324
:1001100000300121B22183120313861D63280800D9
:10012000831203130030C800831203138600831266
:100130000313B221831203130712B8210716BB2140
:100140000712071FA128831203138F018E011014B9
:1001500083120313071BAA288312031310101430F1
:10016000B50002221B221030B5000222C021C30AB2
:1001700083120313C80A4808860083120313003051
:100180000121B221861D9A28080083120313003032
:10019000C80083120313860083120313B221831253
:1001A00003138712B8218716BB218712071FD62891
:1001B000831203138F018E01101483120313071B84
:1001C000DF288312031310101430B50002221B2203
:1001D0001030B50002224D22C021C30A831203133E
:1001E000C80A480886008312031300300121B22197
:1001F000861DCF280800F930F0000000F00BFD2824
:100200000800F100FB20F10B022908000815FB2073
:100210000811FB200800F500F0398800F418881454
:100220000621FB20F50E7508F0398800F4188814B3
:100230000621FB20080064300121F030F40030304A
:1002400088000621053001210621FB200621081225
:10025000062128300B2108300B2101300B210630FC
:100260000B2180300B210C300B210800831203136B
:100270000330B600F41457300B21F41465300B2111
:10028000F4146C300B21F41463300B21F4146D3032
:100290000B21F41465300B21F41420300B21F414DD
:1002A00074300B21F4146F300B21C030F4100B218B
:1002B000F41453300B21F41446300B21F414523053
:1002C0000B21F41430300B21F41434300B21F414CE
:1002D00020300B21F4144D300B21F4146F300B211E
:1002E000F41464300B21F41475300B21F4146C30C9
:1002F0000B21F41473300B2100300121B2210121B4
:10030000B60B3A29080083120313B221F4145230B9
:100310000B21F41465300B21F41473300B21F41409
:1003200074300B21F41474300B21F41469300B2158
:10033000F4146E300B21F41467300B21F4142E30BA
:100340000B21F4142E300B21F4142E300B2100302D
:1003500001210000000000300121000000000030F9
:1003600001210800831203130130F4100B2108004F
:1003700000000000080010300000800BBC290800BD
:10038000582294220800390835020319EF29390848
:100390003502031CD229B50039020319EF290318CD
:1003A000D229C3293508303EF4140B21080000304F
:1003B000C00039083502031DDF29C00AE9293908C0
:1003C0003502031CEF29C00AB50039020318E929D8
:1003D000D9294008B5000A30B900C3210800F41437
:1003E00030300B2108000030C00030083502B50065
:1003F000C00A30020318FD29F5294008303EF414E4
:100400000B2108001630350203180B2A8E0C8F0CB6
:10041000B50B062A08008E010430B5008F0CB50B11
:100420000E2A08000F08B7000E08B800B80DB70D67
:10043000B50B162A0800C101C2010A30B50012220C
:100440003708C1073808C2070630B5001222410834
:100450003707C10042083807C2000430B500122235
:100460004108B707C10042083807C2000330B50091
:1004700012224108B707C10042083807C200013004
:10048000B50012224108B707C10042083807C20070
:1004900041088E0041088F00080002300E02031848
:1004A000522A8E0100300E02031C080000308E011B
:1004B00031080E02031C6D2A3308B4004608C70039
:1004C0003208B3004508C6003108B2004408C50030
:1004D0000E08B1004308C400080032080E02031CD5
:1004E0007E2A3308B4004608C7003208B300450826
:1004F000C6000E08B2004308C500080033080E020B
:10050000031C8B2A3308B4004608C7000E08B3004A
:100510004308C600080034080E02031C08000E0839
:10052000B4004308C7000800310803190800A52AD1
:10053000320803190800BD2A330803190800DB2A12
:10054000340803190800F62A080083120313F41470
:1005500055300B214408B500D7214408B500C3210C
:10056000F4143A300B213108B500F3213108B500FD
:10057000D7213108B500C321982A83120313F4143C
:1005800020300B21F41420300B21F41455300B21B2
:100590004508B500D7214508B500C321F4143A3009
:1005A0000B213208B500F3213208B500D7213208FB
:1005B000B500C3219C2A83120313C030F4100B2111
:1005C000F41455300B214608B500D7214608B50074
:1005D000C321F4143A300B213308B500F32133085A
:1005E000B500D7213308B500C321A02A8312031315
:1005F000F41420300B21F41420300B21F414553066
:100600000B214708B500D7214708B500C321F414D2
:100610003A300B213408B500F3213408B500D72156
:0C0620003408B500C32100300121A42AD9
:02400E00313748
:00000001FF
